{
  "address": "0xe891659e9f400b7b58A69FD175B64921806Ce652",
  "abi": [
    {
      "inputs": [
        {
          "internalType": "address",
          "name": "_gelato",
          "type": "address"
        },
        {
          "internalType": "address",
          "name": "_wrappedNative",
          "type": "address"
        }
      ],
      "stateMutability": "nonpayable",
      "type": "constructor"
    },
    {
      "anonymous": false,
      "inputs": [
        {
          "indexed": true,
          "internalType": "bytes32",
          "name": "key",
          "type": "bytes32"
        },
        {
          "indexed": true,
          "internalType": "address",
          "name": "owner",
          "type": "address"
        },
        {
          "indexed": false,
          "internalType": "uint256",
          "name": "amount",
          "type": "uint256"
        }
      ],
      "name": "LogCancelled",
      "type": "event"
    },
    {
      "anonymous": false,
      "inputs": [
        {
          "indexed": true,
          "internalType": "bytes32",
          "name": "key",
          "type": "bytes32"
        },
        {
          "components": [
            {
              "internalType": "address",
              "name": "owner",
              "type": "address"
            },
            {
              "internalType": "address",
              "name": "inputToken",
              "type": "address"
            },
            {
              "internalType": "address",
              "name": "outputToken",
              "type": "address"
            },
            {
              "internalType": "address",
              "name": "factory",
              "type": "address"
            },
            {
              "internalType": "address",
              "name": "router",
              "type": "address"
            },
            {
              "internalType": "uint256",
              "name": "amountIn",
              "type": "uint256"
            },
            {
              "internalType": "uint256",
              "name": "minReturn",
              "type": "uint256"
            },
            {
              "internalType": "uint256",
              "name": "salt",
              "type": "uint256"
            },
            {
              "internalType": "bytes32",
              "name": "initCodeHash",
              "type": "bytes32"
            }
          ],
          "indexed": false,
          "internalType": "struct UniswapV2Order",
          "name": "order",
          "type": "tuple"
        },
        {
          "indexed": false,
          "internalType": "uint256",
          "name": "amountIn",
          "type": "uint256"
        }
      ],
      "name": "LogDeposit",
      "type": "event"
    },
    {
      "anonymous": false,
      "inputs": [
        {
          "indexed": true,
          "internalType": "bytes32",
          "name": "key",
          "type": "bytes32"
        },
        {
          "indexed": true,
          "internalType": "address",
          "name": "owner",
          "type": "address"
        },
        {
          "indexed": false,
          "internalType": "uint256",
          "name": "amountOut",
          "type": "uint256"
        },
        {
          "indexed": false,
          "internalType": "bytes",
          "name": "auxData",
          "type": "bytes"
        }
      ],
      "name": "LogFill",
      "type": "event"
    },
    {
      "inputs": [],
      "name": "GELATO",
      "outputs": [
        {
          "internalType": "contract IGelato",
          "name": "",
          "type": "address"
        }
      ],
      "stateMutability": "view",
      "type": "function"
    },
    {
      "inputs": [],
      "name": "WRAPPED_NATIVE",
      "outputs": [
        {
          "internalType": "address",
          "name": "",
          "type": "address"
        }
      ],
      "stateMutability": "view",
      "type": "function"
    },
    {
      "inputs": [
        {
          "internalType": "uint256",
          "name": "_minReturn",
          "type": "uint256"
        },
        {
          "components": [
            {
              "internalType": "address",
              "name": "owner",
              "type": "address"
            },
            {
              "internalType": "address",
              "name": "inputToken",
              "type": "address"
            },
            {
              "internalType": "address",
              "name": "outputToken",
              "type": "address"
            },
            {
              "internalType": "address",
              "name": "factory",
              "type": "address"
            },
            {
              "internalType": "address",
              "name": "router",
              "type": "address"
            },
            {
              "internalType": "uint256",
              "name": "amountIn",
              "type": "uint256"
            },
            {
              "internalType": "uint256",
              "name": "minReturn",
              "type": "uint256"
            },
            {
              "internalType": "uint256",
              "name": "salt",
              "type": "uint256"
            },
            {
              "internalType": "bytes32",
              "name": "initCodeHash",
              "type": "bytes32"
            }
          ],
          "internalType": "struct UniswapV2Order",
          "name": "_order",
          "type": "tuple"
        },
        {
          "internalType": "bytes",
          "name": "_auxData",
          "type": "bytes"
        }
      ],
      "name": "canFill",
      "outputs": [
        {
          "internalType": "bool",
          "name": "",
          "type": "bool"
        }
      ],
      "stateMutability": "view",
      "type": "function"
    },
    {
      "inputs": [
        {
          "components": [
            {
              "internalType": "address",
              "name": "owner",
              "type": "address"
            },
            {
              "internalType": "address",
              "name": "inputToken",
              "type": "address"
            },
            {
              "internalType": "address",
              "name": "outputToken",
              "type": "address"
            },
            {
              "internalType": "address",
              "name": "factory",
              "type": "address"
            },
            {
              "internalType": "address",
              "name": "router",
              "type": "address"
            },
            {
              "internalType": "uint256",
              "name": "amountIn",
              "type": "uint256"
            },
            {
              "internalType": "uint256",
              "name": "minReturn",
              "type": "uint256"
            },
            {
              "internalType": "uint256",
              "name": "salt",
              "type": "uint256"
            },
            {
              "internalType": "bytes32",
              "name": "initCodeHash",
              "type": "bytes32"
            }
          ],
          "internalType": "struct UniswapV2Order",
          "name": "_order",
          "type": "tuple"
        }
      ],
      "name": "cancelOrder",
      "outputs": [],
      "stateMutability": "nonpayable",
      "type": "function"
    },
    {
      "inputs": [
        {
          "components": [
            {
              "internalType": "address",
              "name": "owner",
              "type": "address"
            },
            {
              "internalType": "address",
              "name": "inputToken",
              "type": "address"
            },
            {
              "internalType": "address",
              "name": "outputToken",
              "type": "address"
            },
            {
              "internalType": "address",
              "name": "factory",
              "type": "address"
            },
            {
              "internalType": "address",
              "name": "router",
              "type": "address"
            },
            {
              "internalType": "uint256",
              "name": "amountIn",
              "type": "uint256"
            },
            {
              "internalType": "uint256",
              "name": "minReturn",
              "type": "uint256"
            },
            {
              "internalType": "uint256",
              "name": "salt",
              "type": "uint256"
            },
            {
              "internalType": "bytes32",
              "name": "initCodeHash",
              "type": "bytes32"
            }
          ],
          "internalType": "struct UniswapV2Order",
          "name": "_order",
          "type": "tuple"
        }
      ],
      "name": "depositNative",
      "outputs": [],
      "stateMutability": "payable",
      "type": "function"
    },
    {
      "inputs": [
        {
          "components": [
            {
              "internalType": "address",
              "name": "owner",
              "type": "address"
            },
            {
              "internalType": "address",
              "name": "inputToken",
              "type": "address"
            },
            {
              "internalType": "address",
              "name": "outputToken",
              "type": "address"
            },
            {
              "internalType": "address",
              "name": "factory",
              "type": "address"
            },
            {
              "internalType": "address",
              "name": "router",
              "type": "address"
            },
            {
              "internalType": "uint256",
              "name": "amountIn",
              "type": "uint256"
            },
            {
              "internalType": "uint256",
              "name": "minReturn",
              "type": "uint256"
            },
            {
              "internalType": "uint256",
              "name": "salt",
              "type": "uint256"
            },
            {
              "internalType": "bytes32",
              "name": "initCodeHash",
              "type": "bytes32"
            }
          ],
          "internalType": "struct UniswapV2Order",
          "name": "_order",
          "type": "tuple"
        }
      ],
      "name": "depositToken",
      "outputs": [],
      "stateMutability": "nonpayable",
      "type": "function"
    },
    {
      "inputs": [
        {
          "internalType": "bytes32",
          "name": "",
          "type": "bytes32"
        }
      ],
      "name": "deposits",
      "outputs": [
        {
          "internalType": "uint256",
          "name": "",
          "type": "uint256"
        }
      ],
      "stateMutability": "view",
      "type": "function"
    },
    {
      "inputs": [
        {
          "components": [
            {
              "internalType": "address",
              "name": "owner",
              "type": "address"
            },
            {
              "internalType": "address",
              "name": "inputToken",
              "type": "address"
            },
            {
              "internalType": "address",
              "name": "outputToken",
              "type": "address"
            },
            {
              "internalType": "address",
              "name": "factory",
              "type": "address"
            },
            {
              "internalType": "address",
              "name": "router",
              "type": "address"
            },
            {
              "internalType": "uint256",
              "name": "amountIn",
              "type": "uint256"
            },
            {
              "internalType": "uint256",
              "name": "minReturn",
              "type": "uint256"
            },
            {
              "internalType": "uint256",
              "name": "salt",
              "type": "uint256"
            },
            {
              "internalType": "bytes32",
              "name": "initCodeHash",
              "type": "bytes32"
            }
          ],
          "internalType": "struct UniswapV2Order",
          "name": "_order",
          "type": "tuple"
        },
        {
          "internalType": "bytes",
          "name": "_auxData",
          "type": "bytes"
        }
      ],
      "name": "fill",
      "outputs": [],
      "stateMutability": "nonpayable",
      "type": "function"
    },
    {
      "inputs": [
        {
          "internalType": "bytes32",
          "name": "_key",
          "type": "bytes32"
        }
      ],
      "name": "isActiveOrder",
      "outputs": [
        {
          "internalType": "bool",
          "name": "",
          "type": "bool"
        }
      ],
      "stateMutability": "view",
      "type": "function"
    },
    {
      "inputs": [
        {
          "components": [
            {
              "internalType": "address",
              "name": "owner",
              "type": "address"
            },
            {
              "internalType": "address",
              "name": "inputToken",
              "type": "address"
            },
            {
              "internalType": "address",
              "name": "outputToken",
              "type": "address"
            },
            {
              "internalType": "address",
              "name": "factory",
              "type": "address"
            },
            {
              "internalType": "address",
              "name": "router",
              "type": "address"
            },
            {
              "internalType": "uint256",
              "name": "amountIn",
              "type": "uint256"
            },
            {
              "internalType": "uint256",
              "name": "minReturn",
              "type": "uint256"
            },
            {
              "internalType": "uint256",
              "name": "salt",
              "type": "uint256"
            },
            {
              "internalType": "bytes32",
              "name": "initCodeHash",
              "type": "bytes32"
            }
          ],
          "internalType": "struct UniswapV2Order",
          "name": "_order",
          "type": "tuple"
        }
      ],
      "name": "keyOf",
      "outputs": [
        {
          "internalType": "bytes32",
          "name": "",
          "type": "bytes32"
        }
      ],
      "stateMutability": "pure",
      "type": "function"
    }
  ],
  "transactionHash": "0xb4bcfceb36d211d94c8785f526e1ff739debe0bde7f6418f487cf26f2d075090",
  "args": [
    "0x7598e84B2E114AB62CAB288CE5f7d5f6bad35BbA",
    "0x0d500B1d8E8eF31E21C99d1Db9A6444d3ADf1270"
  ],
  "numDeployments": 2,
  "solcInputHash": "a9df064ff3dc2a062cfb977fc08da8cf",
  "bytecode": "0x60c06040523480156200001157600080fd5b5060405162002afb38038062002afb83398101604081905262000034916200006d565b6001600160a01b039081166080521660a05260018055620000a5565b80516001600160a01b03811681146200006857600080fd5b919050565b600080604083850312156200008157600080fd5b6200008c8362000050565b91506200009c6020840162000050565b90509250929050565b60805160a0516129b96200014260003960008181610228015281816109df01528181611237015281816112f301528181611586015261170f0152600081816101dc015281816102d501528181610c2c01528181610c8501528181610f2601528181610fb6015281816111be015281816112d201528181611380015281816113d40152818161142801528181611496015261156501526129b96000f3fe6080604052600436106100915760003560e01c8063bc01325911610059578063bc0132591461016a578063d49cbd501461018a578063d620497c146101aa578063d999984d146101ca578063eff557a71461021657600080fd5b80633a8f1235146100965780633d4dff7b146100b857806354a09aa5146100f85780637e0c34581461010b5780638acc6b3c1461014a575b600080fd5b3480156100a257600080fd5b506100b66100b1366004612287565b61024a565b005b3480156100c457600080fd5b506100e56100d33660046122a4565b60006020819052908152604090205481565b6040519081526020015b60405180910390f35b6100b6610106366004612287565b610634565b34801561011757600080fd5b5061013a6101263660046122a4565b600090815260208190526040902054151590565b60405190151581526020016100ef565b34801561015657600080fd5b506100e5610165366004612287565b61083a565b34801561017657600080fd5b506100b6610185366004612287565b61086a565b34801561019657600080fd5b506100b66101a53660046122ff565b6109dd565b3480156101b657600080fd5b5061013a6101c5366004612355565b610bf5565b3480156101d657600080fd5b506101fe7f000000000000000000000000000000000000000000000000000000000000000081565b6040516001600160a01b0390911681526020016100ef565b34801561022257600080fd5b506101fe7f000000000000000000000000000000000000000000000000000000000000000081565b73eeeeeeeeeeeeeeeeeeeeeeeeeeeeeeeeeeeeeeee61026f60408301602084016123da565b6001600160a01b0316036102cb5760405162461bcd60e51b815260206004820152602a602482015260008051602061296483398151915260448201526904f4e4c595f45524332360b41b60648201526084015b60405180910390fd5b6001600160a01b037f00000000000000000000000000000000000000000000000000000000000000001661030560408301602084016123da565b6001600160a01b03160361037f5761032b61032660608301604084016123da565b610c5b565b1561037f5760405162461bcd60e51b8152602060048201526030602482015260008051602061296483398151915260448201526f4e41544956455f544f5f4e415449564560801b60648201526084016102c2565b600061039160408301602084016123da565b6040516370a0823160e01b81523060048201526001600160a01b0391909116906370a0823190602401602060405180830381865afa1580156103d7573d6000803e3d6000fd5b505050506040513d601f19601f820116820180604052508101906103fb91906123f7565b905061040d60408301602084016123da565b6040516323b872dd60e01b815233600482015230602482015260a084013560448201526001600160a01b0391909116906323b872dd906064016020604051808303816000875af1158015610465573d6000803e3d6000fd5b505050506040513d601f19601f820116820180604052508101906104899190612410565b50600061049c60408401602085016123da565b6040516370a0823160e01b81523060048201526001600160a01b0391909116906370a0823190602401602060405180830381865afa1580156104e2573d6000803e3d6000fd5b505050506040513d601f19601f8201168201806040525081019061050691906123f7565b905060006105148383612448565b90508060000361056b5760405162461bcd60e51b815260206004820152602e602482015260008051602061296483398151915260448201526d1393d7d513d2d15394d7d4d1539560921b60648201526084016102c2565b60006105768561083a565b600081815260208190526040902054909150156105e05760405162461bcd60e51b815260206004820152603460248201526000805160206129648339815191526044820152734f524445525f414c52454144595f45585349545360601b60648201526084016102c2565b600081815260208190526040908190208390555181907f20c269191222298467aab5c214f40504fe0206bf5d94486946a749f04cdc048c906106259088908690612509565b60405180910390a25050505050565b346000036106865760405162461bcd60e51b815260206004820152602b602482015260008051602061294483398151915260448201526a02056414c55455f49535f360ac1b60648201526084016102c2565b73eeeeeeeeeeeeeeeeeeeeeeeeeeeeeeeeeeeeeeee6106ab60408301602084016123da565b6001600160a01b03161461070a5760405162461bcd60e51b81526020600482015260326024820152600080516020612944833981519152604482015271102ba927a723afa4a7282aaa2faa27a5a2a760711b60648201526084016102c2565b61071d61032660608301604084016123da565b156107725760405162461bcd60e51b81526020600482015260316024820152600080516020612944833981519152604482015270204e41544956455f544f5f4e415449564560781b60648201526084016102c2565b600061077d8261083a565b600081815260208190526040902054909150156107e85760405162461bcd60e51b81526020600482015260356024820152600080516020612944833981519152604482015274204f524445525f414c52454144595f45585349545360581b60648201526084016102c2565b600081815260208190526040908190203490819055905182917f20c269191222298467aab5c214f40504fe0206bf5d94486946a749f04cdc048c9161082e918691612509565b60405180910390a25050565b60008160405160200161084d9190612526565b604051602081830303815290604052805190602001209050919050565b61087760208201826123da565b6001600160a01b0316336001600160a01b0316146108ec5760405162461bcd60e51b815260206004820152602c60248201527f47656c61746f4f72646572735661756c742e63616e63656c4f726465723a204960448201526b272b20a624a22fa7aba722a960a11b60648201526084016102c2565b60006108f78261083a565b60008181526020819052604090205490915061096a5760405162461bcd60e51b815260206004820152602c60248201527f47656c61746f4f72646572735661756c742e63616e63656c4f726465723a204960448201526b272b20a624a22fa7a92222a960a11b60648201526084016102c2565b600061098661097f60408501602086016123da565b8333610cbf565b905061099560208401846123da565b6001600160a01b0316827f748f3ed3813a0b11e46a6229680e83073e44e99f7a093329b13abab8409d1b98836040516109d091815260200190565b60405180910390a3505050565b7f00000000000000000000000000000000000000000000000000000000000000006001600160a01b03163314610a555760405162461bcd60e51b815260206004820152601d60248201527f47656c61746f4f72646572735661756c743a206f6e6c7947656c61746f00000060448201526064016102c2565b600260015403610aa75760405162461bcd60e51b815260206004820152601f60248201527f5265656e7472616e637947756172643a207265656e7472616e742063616c6c0060448201526064016102c2565b60026001556000610ad3610ac160608601604087016123da565b610ace60208701876123da565b610dcb565b9050610ae0848484610e70565b6000610b02610af560608701604088016123da565b610ace60208801886123da565b905060c0850135610b138383612448565b1015610b875760405162461bcd60e51b815260206004820152603e60248201527f47656c61746f4f72646572735661756c742e66696c6c3a20495353554649434960448201527f454e545f4f574e45525f4f55545055545f544f4b454e5f42414c414e4345000060648201526084016102c2565b610b9460208601866123da565b6001600160a01b0316610ba68661083a565b7f72d676daec0260566cd7ec0d194d62784969b10a6a4c2e27ce6a144eb654ba82610bd18585612448565b8787604051610be293929190612535565b60405180910390a3505060018055505050565b6000610c036101268561083a565b8015610c525750610c5284600080610c1a8861083a565b815260200190815260200160002054877f00000000000000000000000000000000000000000000000000000000000000008787611053565b95945050505050565b60006001600160a01b03821673eeeeeeeeeeeeeeeeeeeeeeeeeeeeeeeeeeeeeeee1480610cb957507f00000000000000000000000000000000000000000000000000000000000000006001600160a01b0316826001600160a01b0316145b92915050565b6000828152602081905260408120805491905573eeeeeeeeeeeeeeeeeeeeeeeeeeeeeeeeeeeeeeed196001600160a01b03851601610db9576000826001600160a01b03168260405160006040518083038185875af1925050503d8060008114610d44576040519150601f19603f3d011682016040523d82523d6000602084013e610d49565b606091505b5050905080610db35760405162461bcd60e51b815260206004820152603060248201527f47656c61746f4f72646572735661756c742e5f70756c6c4f726465723a20534560448201526f139117d3905512559157d1905253115160821b60648201526084016102c2565b50610dc4565b610dc48483836110be565b9392505050565b600073eeeeeeeeeeeeeeeeeeeeeeeeeeeeeeeeeeeeeeee6001600160a01b03841614610e60576040516370a0823160e01b81526001600160a01b0383811660048301528416906370a0823190602401602060405180830381865afa158015610e37573d6000803e3d6000fd5b505050506040513d601f19601f82011682018060405250810190610e5b91906123f7565b610dc4565b506001600160a01b031631919050565b6000610e7b8461083a565b600081815260208190526040902054909150610ee75760405162461bcd60e51b815260206004820152602560248201527f47656c61746f4f72646572735661756c742e66696c6c3a20494e56414c49445f60448201526427a92222a960d91b60648201526084016102c2565b600080808080610ef98789018961264a565b60008b8152602081815260408083208054939055969b509499509297509095509350916001600160a01b037f00000000000000000000000000000000000000000000000000000000000000001691610f55918d01908d016123da565b6001600160a01b03161480610f95575073eeeeeeeeeeeeeeeeeeeeeeeeeeeeeeeeeeeeeeee610f8a60408c0160208d016123da565b6001600160a01b0316145b15610fac57610fa78a82888887611115565b611047565b6001600160a01b037f000000000000000000000000000000000000000000000000000000000000000016610fe660608c0160408d016123da565b6001600160a01b03161480611026575073eeeeeeeeeeeeeeeeeeeeeeeeeeeeeeeeeeeeeeee61101b60608c0160408d016123da565b6001600160a01b0316145b1561103857610fa78a828888876113cd565b6110478a828888888888611617565b50505050505050505050565b60008080806110648587018761264a565b94509450505092506110b08a602001602081019061108291906123da565b61109260608d0160408e016123da565b8b8b8e60800160208101906110a791906123da565b8c89898961179b565b9a9950505050505050505050565b604080516001600160a01b038416602482015260448082018490528251808303909101815260649091019091526020810180516001600160e01b031663a9059cbb60e01b1790526111109084906118c3565b505050565b8284116111815760405162461bcd60e51b815260206004820152603460248201527f47656c61746f4f72646572735661756c742e66696c6c3a2043414e545f5041596044820152730bea48a9882b28aa4be8c8a8abea89ebe90928e960631b60648201526084016102c2565b73eeeeeeeeeeeeeeeeeeeeeeeeeeeeeeeeeeeeeeee6111a660408701602088016123da565b6001600160a01b0316036112cd576001600160a01b037f00000000000000000000000000000000000000000000000000000000000000001663d0e30db06111ed8587612448565b6040518263ffffffff1660e01b81526004016000604051808303818588803b15801561121857600080fd5b505af115801561122c573d6000803e3d6000fd5b50505050506112c8837f00000000000000000000000000000000000000000000000000000000000000006001600160a01b03166312fde4b76040518163ffffffff1660e01b81526004016020604051808303816000875af1158015611295573d6000803e3d6000fd5b505050506040513d601f19601f820116820180604052508101906112b991906126dd565b6001600160a01b031690611995565b61137b565b61137b7f00000000000000000000000000000000000000000000000000000000000000007f00000000000000000000000000000000000000000000000000000000000000006001600160a01b03166312fde4b76040518163ffffffff1660e01b81526004016020604051808303816000875af1158015611351573d6000803e3d6000fd5b505050506040513d601f19601f8201168201806040525081019061137591906126dd565b856110be565b6113af7f0000000000000000000000000000000000000000000000000000000000000000836113aa8688612448565b6110be565b6113c6816113c060208801886123da565b87611aae565b5050505050565b60006113f97f000000000000000000000000000000000000000000000000000000000000000030610dcb565b905061141561140e60408801602089016123da565b84876110be565b611420823088611aae565b60008161144d7f000000000000000000000000000000000000000000000000000000000000000030610dcb565b6114579190612448565b905073eeeeeeeeeeeeeeeeeeeeeeeeeeeeeeeeeeeeeeee61147e6060890160408a016123da565b6001600160a01b031603611536576001600160a01b037f000000000000000000000000000000000000000000000000000000000000000016632e1a7d4d6114c58784612448565b6040518263ffffffff1660e01b81526004016114e391815260200190565b600060405180830381600087803b1580156114fd57600080fd5b505af1158015611511573d6000803e3d6000fd5b5050505061153185826115249190612448565b6112b960208a018a6123da565b611560565b6115606115496060890160408a016123da565b61155660208a018a6123da565b6113aa8885612448565b61160e7f00000000000000000000000000000000000000000000000000000000000000007f00000000000000000000000000000000000000000000000000000000000000006001600160a01b03166312fde4b76040518163ffffffff1660e01b81526004016020604051808303816000875af11580156115e4573d6000803e3d6000fd5b505050506040513d601f19601f8201168201806040525081019061160891906126dd565b876110be565b50505050505050565b600061162960a0890160808a016123da565b6001600160a01b0316631f00ca7487846040518363ffffffff1660e01b81526004016116569291906126fa565b600060405180830381865afa158015611673573d6000803e3d6000fd5b505050506040513d6000823e601f3d908101601f1916820160405261169b9190810190612751565b6000815181106116ad576116ad6127d7565b602002602001015190506116d88860200160208101906116cd91906123da565b866113aa848b612448565b6116ef836116e960208b018b6123da565b8a611aae565b61170961170260408a0160208b016123da565b85836110be565b611791827f00000000000000000000000000000000000000000000000000000000000000006001600160a01b03166312fde4b76040518163ffffffff1660e01b81526004016020604051808303816000875af115801561176d573d6000803e3d6000fd5b505050506040513d601f19601f820116820180604052508101906116e991906126dd565b5050505050505050565b6000846001600160a01b03168a6001600160a01b031614806117d957506001600160a01b038a1673eeeeeeeeeeeeeeeeeeeeeeeeeeeeeeeeeeeeeeee145b1561180b578388116117ed575060006118b6565b866118026117fb868b612448565b8589611e0d565b101590506118b6565b846001600160a01b0316896001600160a01b0316148061184757506001600160a01b03891673eeeeeeeeeeeeeeeeeeeeeeeeeeeeeeeeeeeeeeee145b15611881576000611859898589611e0d565b905084811161186c5760009150506118b6565b876118778683612448565b10159150506118b6565b600061188e858489611eb6565b90508881106118a15760009150506118b6565b876118776118af838c612448565b868a611e0d565b9998505050505050505050565b6000611918826040518060400160405280602081526020017f5361666545524332303a206c6f772d6c6576656c2063616c6c206661696c6564815250856001600160a01b0316611f419092919063ffffffff16565b80519091501561111057808060200190518101906119369190612410565b6111105760405162461bcd60e51b815260206004820152602a60248201527f5361666545524332303a204552433230206f7065726174696f6e20646964206e6044820152691bdd081cdd58d8d9595960b21b60648201526084016102c2565b804710156119e55760405162461bcd60e51b815260206004820152601d60248201527f416464726573733a20696e73756666696369656e742062616c616e636500000060448201526064016102c2565b6000826001600160a01b03168260405160006040518083038185875af1925050503d8060008114611a32576040519150601f19603f3d011682016040523d82523d6000602084013e611a37565b606091505b50509050806111105760405162461bcd60e51b815260206004820152603a60248201527f416464726573733a20756e61626c6520746f2073656e642076616c75652c207260448201527f6563697069656e74206d6179206861766520726576657274656400000000000060648201526084016102c2565b60005b60018451611abf9190612448565b811015611e0757600080858381518110611adb57611adb6127d7565b602002602001015186846001611af191906127ed565b81518110611b0157611b016127d7565b6020026020010151915091506000611b198383611f58565b5090506000611b3e611b3160808801606089016123da565b858589610100013561204f565b90506000806000836001600160a01b0316630902f1ac6040518163ffffffff1660e01b8152600401606060405180830381865afa158015611b83573d6000803e3d6000fd5b505050506040513d601f19601f82011682018060405250810190611ba7919061281c565b506001600160701b031691506001600160701b03169150600080866001600160a01b0316896001600160a01b031614611be1578284611be4565b83835b9092509050611bf960a08c0160808d016123da565b6040516370a0823160e01b81526001600160a01b0388811660048301529182169163054d50d49185918d16906370a0823190602401602060405180830381865afa158015611c4b573d6000803e3d6000fd5b505050506040513d601f19601f82011682018060405250810190611c6f91906123f7565b611c799190612448565b6040516001600160e01b031960e084901b16815260048101919091526024810185905260448101849052606401602060405180830381865afa158015611cc3573d6000803e3d6000fd5b505050506040513d601f19601f82011682018060405250810190611ce791906123f7565b945050505050600080846001600160a01b0316876001600160a01b031614611d1157826000611d15565b6000835b91509150600060028c51611d299190612448565b8910611d35578a611d78565b611d78611d4860808c0160608d016123da565b888e611d558d60026127ed565b81518110611d6557611d656127d7565b60200260200101518d610100013561204f565b6040805160008152602081019182905263022c0d9f60e01b9091529091506001600160a01b0386169063022c0d9f90611dba90869086908690602481016128c4565b600060405180830381600087803b158015611dd457600080fd5b505af1158015611de8573d6000803e3d6000fd5b5050505050505050505050508080611dff906128fb565b915050611ab1565b50505050565b600080826001600160a01b031663d06ca61f86866040518363ffffffff1660e01b8152600401611e3e9291906126fa565b600060405180830381865afa158015611e5b573d6000803e3d6000fd5b505050506040513d6000823e601f3d908101601f19168201604052611e839190810190612751565b90508060018251611e949190612448565b81518110611ea457611ea46127d7565b60200260200101519150509392505050565b600080826001600160a01b0316631f00ca7486866040518363ffffffff1660e01b8152600401611ee79291906126fa565b600060405180830381865afa158015611f04573d6000803e3d6000fd5b505050506040513d6000823e601f3d908101601f19168201604052611f2c9190810190612751565b905080600081518110611ea457611ea46127d7565b6060611f50848460008561210d565b949350505050565b600080826001600160a01b0316846001600160a01b031603611fca5760405162461bcd60e51b815260206004820152602560248201527f556e697377617056324c6962726172793a204944454e544943414c5f41444452604482015264455353455360d81b60648201526084016102c2565b826001600160a01b0316846001600160a01b031610611fea578284611fed565b83835b90925090506001600160a01b0382166120485760405162461bcd60e51b815260206004820152601e60248201527f556e697377617056324c6962726172793a205a45524f5f41444452455353000060448201526064016102c2565b9250929050565b600080600061205e8686611f58565b6040516bffffffffffffffffffffffff19606084811b8216602084015283901b1660348201529193509150879060480160405160208183030381529060405280519060200120856040516020016120ea939291906001600160f81b0319815260609390931b6bffffffffffffffffffffffff191660018401526015830191909152603582015260550190565b60408051601f198184030181529190528051602090910120979650505050505050565b60608247101561216e5760405162461bcd60e51b815260206004820152602660248201527f416464726573733a20696e73756666696369656e742062616c616e636520666f6044820152651c8818d85b1b60d21b60648201526084016102c2565b843b6121bc5760405162461bcd60e51b815260206004820152601d60248201527f416464726573733a2063616c6c20746f206e6f6e2d636f6e747261637400000060448201526064016102c2565b600080866001600160a01b031685876040516121d89190612914565b60006040518083038185875af1925050503d8060008114612215576040519150601f19603f3d011682016040523d82523d6000602084013e61221a565b606091505b509150915061222a828286612235565b979650505050505050565b60608315612244575081610dc4565b8251156122545782518084602001fd5b8160405162461bcd60e51b81526004016102c29190612930565b6000610120828403121561228157600080fd5b50919050565b6000610120828403121561229a57600080fd5b610dc4838361226e565b6000602082840312156122b657600080fd5b5035919050565b60008083601f8401126122cf57600080fd5b50813567ffffffffffffffff8111156122e757600080fd5b60208301915083602082850101111561204857600080fd5b6000806000610140848603121561231557600080fd5b61231f858561226e565b925061012084013567ffffffffffffffff81111561233c57600080fd5b612348868287016122bd565b9497909650939450505050565b600080600080610160858703121561236c57600080fd5b8435935061237d866020870161226e565b925061014085013567ffffffffffffffff81111561239a57600080fd5b6123a6878288016122bd565b95989497509550505050565b6001600160a01b03811681146123c757600080fd5b50565b80356123d5816123b2565b919050565b6000602082840312156123ec57600080fd5b8135610dc4816123b2565b60006020828403121561240957600080fd5b5051919050565b60006020828403121561242257600080fd5b81518015158114610dc457600080fd5b634e487b7160e01b600052601160045260246000fd5b60008282101561245a5761245a612432565b500390565b803561246a816123b2565b6001600160a01b031682526020810135612483816123b2565b6001600160a01b0316602083015261249d604082016123ca565b6001600160a01b031660408301526124b7606082016123ca565b6001600160a01b031660608301526124d1608082016123ca565b6001600160a01b0316608083015260a0818101359083015260c0808201359083015260e0808201359083015261010090810135910152565b6101408101612518828561245f565b826101208301529392505050565b6101208101610cb9828461245f565b83815260406020820152816040820152818360608301376000818301606090810191909152601f909201601f1916010192915050565b634e487b7160e01b600052604160045260246000fd5b604051601f8201601f1916810167ffffffffffffffff811182821017156125aa576125aa61256b565b604052919050565b600067ffffffffffffffff8211156125cc576125cc61256b565b5060051b60200190565b600082601f8301126125e757600080fd5b813560206125fc6125f7836125b2565b612581565b82815260059290921b8401810191818101908684111561261b57600080fd5b8286015b8481101561263f578035612632816123b2565b835291830191830161261f565b509695505050505050565b600080600080600060a0868803121561266257600080fd5b853594506020860135612674816123b2565b93506040860135612684816123b2565b9250606086013567ffffffffffffffff808211156126a157600080fd5b6126ad89838a016125d6565b935060808801359150808211156126c357600080fd5b506126d0888289016125d6565b9150509295509295909350565b6000602082840312156126ef57600080fd5b8151610dc4816123b2565b6000604082018483526020604081850152818551808452606086019150828701935060005b818110156127445784516001600160a01b03168352938301939183019160010161271f565b5090979650505050505050565b6000602080838503121561276457600080fd5b825167ffffffffffffffff81111561277b57600080fd5b8301601f8101851361278c57600080fd5b805161279a6125f7826125b2565b81815260059190911b820183019083810190878311156127b957600080fd5b928401925b8284101561222a578351825292840192908401906127be565b634e487b7160e01b600052603260045260246000fd5b6000821982111561280057612800612432565b500190565b80516001600160701b03811681146123d557600080fd5b60008060006060848603121561283157600080fd5b61283a84612805565b925061284860208501612805565b9150604084015163ffffffff8116811461286157600080fd5b809150509250925092565b60005b8381101561288757818101518382015260200161286f565b83811115611e075750506000910152565b600081518084526128b081602086016020860161286c565b601f01601f19169290920160200192915050565b84815283602082015260018060a01b03831660408201526080606082015260006128f16080830184612898565b9695505050505050565b60006001820161290d5761290d612432565b5060010190565b6000825161292681846020870161286c565b9190910192915050565b602081526000610dc4602083018461289856fe47656c61746f4f72646572735661756c742e6465706f7369744e61746976653a47656c61746f4f72646572735661756c742e6465706f736974546f6b656e3a20a2646970667358221220cca2716ded82030c68b52c80c4dd6ba6233ea7fffb3916f69877d22d5f1a28d364736f6c634300080d0033",
  "devdoc": {
    "kind": "dev",
    "methods": {},
    "version": 1
  },
  "userdoc": {
    "kind": "user",
    "methods": {},
    "version": 1
  },
  "storageLayout": {
    "storage": [
      {
        "astId": 1367,
        "contract": "contracts/GelatoUniswapV2LimitOrders.sol:GelatoUniswapV2LimitOrders",
        "label": "deposits",
        "offset": 0,
        "slot": "0",
        "type": "t_mapping(t_bytes32,t_uint256)"
      },
      {
        "astId": 10,
        "contract": "contracts/GelatoUniswapV2LimitOrders.sol:GelatoUniswapV2LimitOrders",
        "label": "_status",
        "offset": 0,
        "slot": "1",
        "type": "t_uint256"
      }
    ],
    "types": {
      "t_bytes32": {
        "encoding": "inplace",
        "label": "bytes32",
        "numberOfBytes": "32"
      },
      "t_mapping(t_bytes32,t_uint256)": {
        "encoding": "mapping",
        "key": "t_bytes32",
        "label": "mapping(bytes32 => uint256)",
        "numberOfBytes": "32",
        "value": "t_uint256"
      },
      "t_uint256": {
        "encoding": "inplace",
        "label": "uint256",
        "numberOfBytes": "32"
      }
    }
  }
}