{
  "_format": "hh-sol-artifact-1",
  "contractName": "GelatoUniswapV2LimitOrders",
  "sourceName": "contracts/GelatoUniswapV2LimitOrders.sol",
  "abi": [
    {
      "inputs": [
        {
          "internalType": "address",
          "name": "_gelato",
          "type": "address"
        },
        {
          "internalType": "address",
          "name": "_wrappedNative",
          "type": "address"
        }
      ],
      "stateMutability": "nonpayable",
      "type": "constructor"
    },
    {
      "anonymous": false,
      "inputs": [
        {
          "indexed": true,
          "internalType": "bytes32",
          "name": "key",
          "type": "bytes32"
        },
        {
          "indexed": true,
          "internalType": "address",
          "name": "owner",
          "type": "address"
        },
        {
          "indexed": false,
          "internalType": "uint256",
          "name": "amount",
          "type": "uint256"
        }
      ],
      "name": "LogCancelled",
      "type": "event"
    },
    {
      "anonymous": false,
      "inputs": [
        {
          "indexed": true,
          "internalType": "bytes32",
          "name": "key",
          "type": "bytes32"
        },
        {
          "components": [
            {
              "internalType": "address",
              "name": "owner",
              "type": "address"
            },
            {
              "internalType": "address",
              "name": "inputToken",
              "type": "address"
            },
            {
              "internalType": "address",
              "name": "outputToken",
              "type": "address"
            },
            {
              "internalType": "address",
              "name": "factory",
              "type": "address"
            },
            {
              "internalType": "address",
              "name": "router",
              "type": "address"
            },
            {
              "internalType": "uint256",
              "name": "amountIn",
              "type": "uint256"
            },
            {
              "internalType": "uint256",
              "name": "minReturn",
              "type": "uint256"
            },
            {
              "internalType": "uint256",
              "name": "salt",
              "type": "uint256"
            },
            {
              "internalType": "bytes32",
              "name": "initCodeHash",
              "type": "bytes32"
            },
            {
              "internalType": "bytes",
              "name": "data",
              "type": "bytes"
            }
          ],
          "indexed": false,
          "internalType": "struct UniswapV2Order",
          "name": "order",
          "type": "tuple"
        },
        {
          "indexed": false,
          "internalType": "uint256",
          "name": "amountIn",
          "type": "uint256"
        }
      ],
      "name": "LogDeposit",
      "type": "event"
    },
    {
      "anonymous": false,
      "inputs": [
        {
          "indexed": true,
          "internalType": "bytes32",
          "name": "key",
          "type": "bytes32"
        },
        {
          "indexed": true,
          "internalType": "address",
          "name": "owner",
          "type": "address"
        },
        {
          "indexed": false,
          "internalType": "uint256",
          "name": "amountOut",
          "type": "uint256"
        },
        {
          "indexed": false,
          "internalType": "bytes",
          "name": "auxData",
          "type": "bytes"
        }
      ],
      "name": "LogFill",
      "type": "event"
    },
    {
      "inputs": [],
      "name": "GELATO",
      "outputs": [
        {
          "internalType": "contract IGelato",
          "name": "",
          "type": "address"
        }
      ],
      "stateMutability": "view",
      "type": "function"
    },
    {
      "inputs": [],
      "name": "WRAPPED_NATIVE",
      "outputs": [
        {
          "internalType": "address",
          "name": "",
          "type": "address"
        }
      ],
      "stateMutability": "view",
      "type": "function"
    },
    {
      "inputs": [
        {
          "internalType": "uint256",
          "name": "_minReturn",
          "type": "uint256"
        },
        {
          "components": [
            {
              "internalType": "address",
              "name": "owner",
              "type": "address"
            },
            {
              "internalType": "address",
              "name": "inputToken",
              "type": "address"
            },
            {
              "internalType": "address",
              "name": "outputToken",
              "type": "address"
            },
            {
              "internalType": "address",
              "name": "factory",
              "type": "address"
            },
            {
              "internalType": "address",
              "name": "router",
              "type": "address"
            },
            {
              "internalType": "uint256",
              "name": "amountIn",
              "type": "uint256"
            },
            {
              "internalType": "uint256",
              "name": "minReturn",
              "type": "uint256"
            },
            {
              "internalType": "uint256",
              "name": "salt",
              "type": "uint256"
            },
            {
              "internalType": "bytes32",
              "name": "initCodeHash",
              "type": "bytes32"
            },
            {
              "internalType": "bytes",
              "name": "data",
              "type": "bytes"
            }
          ],
          "internalType": "struct UniswapV2Order",
          "name": "_order",
          "type": "tuple"
        },
        {
          "internalType": "bytes",
          "name": "_auxData",
          "type": "bytes"
        }
      ],
      "name": "canFill",
      "outputs": [
        {
          "internalType": "bool",
          "name": "",
          "type": "bool"
        }
      ],
      "stateMutability": "view",
      "type": "function"
    },
    {
      "inputs": [
        {
          "components": [
            {
              "internalType": "address",
              "name": "owner",
              "type": "address"
            },
            {
              "internalType": "address",
              "name": "inputToken",
              "type": "address"
            },
            {
              "internalType": "address",
              "name": "outputToken",
              "type": "address"
            },
            {
              "internalType": "address",
              "name": "factory",
              "type": "address"
            },
            {
              "internalType": "address",
              "name": "router",
              "type": "address"
            },
            {
              "internalType": "uint256",
              "name": "amountIn",
              "type": "uint256"
            },
            {
              "internalType": "uint256",
              "name": "minReturn",
              "type": "uint256"
            },
            {
              "internalType": "uint256",
              "name": "salt",
              "type": "uint256"
            },
            {
              "internalType": "bytes32",
              "name": "initCodeHash",
              "type": "bytes32"
            },
            {
              "internalType": "bytes",
              "name": "data",
              "type": "bytes"
            }
          ],
          "internalType": "struct UniswapV2Order",
          "name": "_order",
          "type": "tuple"
        }
      ],
      "name": "cancelOrder",
      "outputs": [],
      "stateMutability": "nonpayable",
      "type": "function"
    },
    {
      "inputs": [
        {
          "components": [
            {
              "internalType": "address",
              "name": "owner",
              "type": "address"
            },
            {
              "internalType": "address",
              "name": "inputToken",
              "type": "address"
            },
            {
              "internalType": "address",
              "name": "outputToken",
              "type": "address"
            },
            {
              "internalType": "address",
              "name": "factory",
              "type": "address"
            },
            {
              "internalType": "address",
              "name": "router",
              "type": "address"
            },
            {
              "internalType": "uint256",
              "name": "amountIn",
              "type": "uint256"
            },
            {
              "internalType": "uint256",
              "name": "minReturn",
              "type": "uint256"
            },
            {
              "internalType": "uint256",
              "name": "salt",
              "type": "uint256"
            },
            {
              "internalType": "bytes32",
              "name": "initCodeHash",
              "type": "bytes32"
            },
            {
              "internalType": "bytes",
              "name": "data",
              "type": "bytes"
            }
          ],
          "internalType": "struct UniswapV2Order",
          "name": "_order",
          "type": "tuple"
        }
      ],
      "name": "depositNative",
      "outputs": [],
      "stateMutability": "payable",
      "type": "function"
    },
    {
      "inputs": [
        {
          "components": [
            {
              "internalType": "address",
              "name": "owner",
              "type": "address"
            },
            {
              "internalType": "address",
              "name": "inputToken",
              "type": "address"
            },
            {
              "internalType": "address",
              "name": "outputToken",
              "type": "address"
            },
            {
              "internalType": "address",
              "name": "factory",
              "type": "address"
            },
            {
              "internalType": "address",
              "name": "router",
              "type": "address"
            },
            {
              "internalType": "uint256",
              "name": "amountIn",
              "type": "uint256"
            },
            {
              "internalType": "uint256",
              "name": "minReturn",
              "type": "uint256"
            },
            {
              "internalType": "uint256",
              "name": "salt",
              "type": "uint256"
            },
            {
              "internalType": "bytes32",
              "name": "initCodeHash",
              "type": "bytes32"
            },
            {
              "internalType": "bytes",
              "name": "data",
              "type": "bytes"
            }
          ],
          "internalType": "struct UniswapV2Order",
          "name": "_order",
          "type": "tuple"
        }
      ],
      "name": "depositToken",
      "outputs": [],
      "stateMutability": "nonpayable",
      "type": "function"
    },
    {
      "inputs": [
        {
          "internalType": "bytes32",
          "name": "",
          "type": "bytes32"
        }
      ],
      "name": "deposits",
      "outputs": [
        {
          "internalType": "uint256",
          "name": "",
          "type": "uint256"
        }
      ],
      "stateMutability": "view",
      "type": "function"
    },
    {
      "inputs": [
        {
          "components": [
            {
              "internalType": "address",
              "name": "owner",
              "type": "address"
            },
            {
              "internalType": "address",
              "name": "inputToken",
              "type": "address"
            },
            {
              "internalType": "address",
              "name": "outputToken",
              "type": "address"
            },
            {
              "internalType": "address",
              "name": "factory",
              "type": "address"
            },
            {
              "internalType": "address",
              "name": "router",
              "type": "address"
            },
            {
              "internalType": "uint256",
              "name": "amountIn",
              "type": "uint256"
            },
            {
              "internalType": "uint256",
              "name": "minReturn",
              "type": "uint256"
            },
            {
              "internalType": "uint256",
              "name": "salt",
              "type": "uint256"
            },
            {
              "internalType": "bytes32",
              "name": "initCodeHash",
              "type": "bytes32"
            },
            {
              "internalType": "bytes",
              "name": "data",
              "type": "bytes"
            }
          ],
          "internalType": "struct UniswapV2Order",
          "name": "_order",
          "type": "tuple"
        },
        {
          "internalType": "bytes",
          "name": "_auxData",
          "type": "bytes"
        }
      ],
      "name": "fill",
      "outputs": [],
      "stateMutability": "nonpayable",
      "type": "function"
    },
    {
      "inputs": [
        {
          "internalType": "bytes32",
          "name": "_key",
          "type": "bytes32"
        }
      ],
      "name": "isActiveOrder",
      "outputs": [
        {
          "internalType": "bool",
          "name": "",
          "type": "bool"
        }
      ],
      "stateMutability": "view",
      "type": "function"
    },
    {
      "inputs": [
        {
          "components": [
            {
              "internalType": "address",
              "name": "owner",
              "type": "address"
            },
            {
              "internalType": "address",
              "name": "inputToken",
              "type": "address"
            },
            {
              "internalType": "address",
              "name": "outputToken",
              "type": "address"
            },
            {
              "internalType": "address",
              "name": "factory",
              "type": "address"
            },
            {
              "internalType": "address",
              "name": "router",
              "type": "address"
            },
            {
              "internalType": "uint256",
              "name": "amountIn",
              "type": "uint256"
            },
            {
              "internalType": "uint256",
              "name": "minReturn",
              "type": "uint256"
            },
            {
              "internalType": "uint256",
              "name": "salt",
              "type": "uint256"
            },
            {
              "internalType": "bytes32",
              "name": "initCodeHash",
              "type": "bytes32"
            },
            {
              "internalType": "bytes",
              "name": "data",
              "type": "bytes"
            }
          ],
          "internalType": "struct UniswapV2Order",
          "name": "_order",
          "type": "tuple"
        }
      ],
      "name": "keyOf",
      "outputs": [
        {
          "internalType": "bytes32",
          "name": "",
          "type": "bytes32"
        }
      ],
      "stateMutability": "pure",
      "type": "function"
    }
  ],
  "bytecode": "0x60c06040523480156200001157600080fd5b5060405162002efb38038062002efb833981016040819052620000349162000069565b6001600160a01b039081166080521660a052620000a1565b80516001600160a01b03811681146200006457600080fd5b919050565b600080604083850312156200007d57600080fd5b62000088836200004c565b915062000098602084016200004c565b90509250929050565b60805160a051612dc462000137600039600081816102280152818161024c01528181610bfa0152818161116a01528181611226015281816114e3015261161f0152600081816101bc0152818161064701528181610d3101528181610dcd015281816110f101528181611205015281816112b30152818161131c01528181611385015281816113f301526114c20152612dc46000f3fe6080604052600436106100915760003560e01c806396de28b41161005957806396de28b41461016a578063d64e1b7c1461018a578063d999984d146101aa578063e92ca15c146101f6578063eff557a71461021657600080fd5b80632816ca16146100965780633d4dff7b146100b857806359c4f6a9146100f85780637e0c345814610118578063945ff8bc14610157575b600080fd5b3480156100a257600080fd5b506100b66100b13660046125b6565b61024a565b005b3480156100c457600080fd5b506100e56100d336600461261f565b60006020819052908152604090205481565b6040519081526020015b60405180910390f35b34801561010457600080fd5b506100e5610113366004612638565b61040c565b34801561012457600080fd5b5061014761013336600461261f565b600090815260208190526040902054151590565b60405190151581526020016100ef565b6100b6610165366004612638565b61043c565b34801561017657600080fd5b5061014761018536600461266d565b610610565b34801561019657600080fd5b506100b66101a5366004612638565b610676565b3480156101b657600080fd5b506101de7f000000000000000000000000000000000000000000000000000000000000000081565b6040516001600160a01b0390911681526020016100ef565b34801561020257600080fd5b506100b6610211366004612638565b6107e9565b34801561022257600080fd5b506101de7f000000000000000000000000000000000000000000000000000000000000000081565b7f00000000000000000000000000000000000000000000000000000000000000006001600160a01b031633146102c75760405162461bcd60e51b815260206004820152601d60248201527f47656c61746f4f72646572735661756c743a206f6e6c7947656c61746f00000060448201526064015b60405180910390fd5b60006102ee6102dc6060860160408701612705565b6102e96020870187612705565b610b50565b90506102fb848484610bf8565b600061031d6103106060870160408801612705565b6102e96020880188612705565b905060c085013561032e8383612738565b10156103a25760405162461bcd60e51b815260206004820152603e60248201527f47656c61746f4f72646572735661756c742e66696c6c3a20495353554649434960448201527f454e545f4f574e45525f4f55545055545f544f4b454e5f42414c414e4345000060648201526084016102be565b6103af6020860186612705565b6001600160a01b03166103c18661040c565b7f72d676daec0260566cd7ec0d194d62784969b10a6a4c2e27ce6a144eb654ba826103ec8585612738565b87876040516103fd93929190612778565b60405180910390a35050505050565b60008160405160200161041f91906128ac565b604051602081830303815290604052805190602001209050919050565b346000036104a05760405162461bcd60e51b815260206004820152602b60248201527f47656c61746f4f72646572735661756c742e6465706f7369744e61746976653a60448201526a02056414c55455f49535f360ac1b60648201526084016102be565b73eeeeeeeeeeeeeeeeeeeeeeeeeeeeeeeeeeeeeeee6104c56040830160208401612705565b6001600160a01b0316146105365760405162461bcd60e51b815260206004820152603260248201527f47656c61746f4f72646572735661756c742e6465706f7369744e61746976653a604482015271102ba927a723afa4a7282aaa2faa27a5a2a760711b60648201526084016102be565b60006105418261040c565b600081815260208190526040902054909150156105be5760405162461bcd60e51b815260206004820152603560248201527f47656c61746f4f72646572735661756c742e6465706f7369744e61746976653a604482015274204f524445525f414c52454144595f45585349545360581b60648201526084016102be565b600081815260208190526040908190203490819055905182917f62acdde10c426573988e6accd49688fb80fb67b27b85bdbeec5a75d7e202bbbd916106049186916128bf565b60405180910390a25050565b600061061e6101338561040c565b801561066d575061066d846000806106358861040c565b815260200190815260200160002054877f00000000000000000000000000000000000000000000000000000000000000008787610e69565b95945050505050565b6106836020820182612705565b6001600160a01b0316336001600160a01b0316146106f85760405162461bcd60e51b815260206004820152602c60248201527f47656c61746f4f72646572735661756c742e63616e63656c4f726465723a204960448201526b272b20a624a22fa7aba722a960a11b60648201526084016102be565b60006107038261040c565b6000818152602081905260409020549091506107765760405162461bcd60e51b815260206004820152602c60248201527f47656c61746f4f72646572735661756c742e63616e63656c4f726465723a204960448201526b272b20a624a22fa7a92222a960a11b60648201526084016102be565b600061079261078b6040850160208601612705565b8333610ed4565b90506107a16020840184612705565b6001600160a01b0316827f748f3ed3813a0b11e46a6229680e83073e44e99f7a093329b13abab8409d1b98836040516107dc91815260200190565b60405180910390a3505050565b73eeeeeeeeeeeeeeeeeeeeeeeeeeeeeeeeeeeeeeee61080e6040830160208401612705565b6001600160a01b0316036108775760405162461bcd60e51b815260206004820152602a60248201527f47656c61746f4f72646572735661756c742e6465706f736974546f6b656e3a2060448201526904f4e4c595f45524332360b41b60648201526084016102be565b60006108896040830160208401612705565b6040516370a0823160e01b81523060048201526001600160a01b0391909116906370a0823190602401602060405180830381865afa1580156108cf573d6000803e3d6000fd5b505050506040513d601f19601f820116820180604052508101906108f391906128e1565b90506109056040830160208401612705565b6040516323b872dd60e01b815233600482015230602482015260a084013560448201526001600160a01b0391909116906323b872dd906064016020604051808303816000875af115801561095d573d6000803e3d6000fd5b505050506040513d601f19601f8201168201806040525081019061098191906128fa565b5060006109946040840160208501612705565b6040516370a0823160e01b81523060048201526001600160a01b0391909116906370a0823190602401602060405180830381865afa1580156109da573d6000803e3d6000fd5b505050506040513d601f19601f820116820180604052508101906109fe91906128e1565b90506000610a0c8383612738565b905080600003610a755760405162461bcd60e51b815260206004820152602e60248201527f47656c61746f4f72646572735661756c742e6465706f736974546f6b656e3a2060448201526d1393d7d513d2d15394d7d4d1539560921b60648201526084016102be565b6000610a808561040c565b60008181526020819052604090205490915015610afc5760405162461bcd60e51b815260206004820152603460248201527f47656c61746f4f72646572735661756c742e6465706f736974546f6b656e3a206044820152734f524445525f414c52454144595f45585349545360601b60648201526084016102be565b600081815260208190526040908190208390555181907f62acdde10c426573988e6accd49688fb80fb67b27b85bdbeec5a75d7e202bbbd90610b4190889086906128bf565b60405180910390a25050505050565b600073eeeeeeeeeeeeeeeeeeeeeeeeeeeeeeeeeeeeeeee6001600160a01b03841614610be5576040516370a0823160e01b81526001600160a01b0383811660048301528416906370a0823190602401602060405180830381865afa158015610bbc573d6000803e3d6000fd5b505050506040513d601f19601f82011682018060405250810190610be091906128e1565b610bf1565b816001600160a01b0316315b9392505050565b7f00000000000000000000000000000000000000000000000000000000000000006001600160a01b03163314610c705760405162461bcd60e51b815260206004820152601d60248201527f47656c61746f4f72646572735661756c743a206f6e6c7947656c61746f00000060448201526064016102be565b610c7c6101338461040c565b610cd65760405162461bcd60e51b815260206004820152602560248201527f47656c61746f4f72646572735661756c742e66696c6c3a20494e56414c49445f60448201526427a92222a960d91b60648201526084016102be565b600080808080610ce8868801886129fb565b945094509450945094506000806000610d008b61040c565b8152602001908152602001600020549050600080610d1d8b61040c565b8152602001908152602001600020600090557f00000000000000000000000000000000000000000000000000000000000000006001600160a01b0316896020016020810190610d6c9190612705565b6001600160a01b03161480610dac575073eeeeeeeeeeeeeeeeeeeeeeeeeeeeeeeeeeeeeeee610da160408b0160208c01612705565b6001600160a01b0316145b15610dc357610dbe8982888887611048565b610e5e565b6001600160a01b037f000000000000000000000000000000000000000000000000000000000000000016610dfd60608b0160408c01612705565b6001600160a01b03161480610e3d575073eeeeeeeeeeeeeeeeeeeeeeeeeeeeeeeeeeeeeeee610e3260608b0160408c01612705565b6001600160a01b0316145b15610e4f57610dbe8982888887611315565b610e5e89828888888888611574565b505050505050505050565b6000808080610e7a858701876129fb565b9450945050509250610ec68a6020016020810190610e989190612705565b610ea860608d0160408e01612705565b8b8b8e6080016020810190610ebd9190612705565b8c8989896116ab565b9a9950505050505050505050565b60008281526020819052604081205490819003610f475760405162461bcd60e51b815260206004820152602b60248201527f47656c61746f4f72646572735661756c742e5f70756c6c4f726465723a20494e60448201526a2b20a624a22fa7a92222a960a91b60648201526084016102be565b60008381526020819052604081205573eeeeeeeeeeeeeeeeeeeeeeeeeeeeeeeeeeeeeeed196001600160a01b0385160161103d576000826001600160a01b03168260405160006040518083038185875af1925050503d8060008114610fc8576040519150601f19603f3d011682016040523d82523d6000602084013e610fcd565b606091505b50509050806110375760405162461bcd60e51b815260206004820152603060248201527f47656c61746f4f72646572735661756c742e5f70756c6c4f726465723a20534560448201526f139117d3905512559157d1905253115160821b60648201526084016102be565b50610bf1565b610bf18483836117d3565b8284116110b45760405162461bcd60e51b815260206004820152603460248201527f47656c61746f4f72646572735661756c742e66696c6c3a2043414e545f5041596044820152730bea48a9882b28aa4be8c8a8abea89ebe90928e960631b60648201526084016102be565b73eeeeeeeeeeeeeeeeeeeeeeeeeeeeeeeeeeeeeeee6110d96040870160208801612705565b6001600160a01b031603611200576001600160a01b037f00000000000000000000000000000000000000000000000000000000000000001663d0e30db06111208587612738565b6040518263ffffffff1660e01b81526004016000604051808303818588803b15801561114b57600080fd5b505af115801561115f573d6000803e3d6000fd5b50505050506111fb837f00000000000000000000000000000000000000000000000000000000000000006001600160a01b03166312fde4b76040518163ffffffff1660e01b81526004016020604051808303816000875af11580156111c8573d6000803e3d6000fd5b505050506040513d601f19601f820116820180604052508101906111ec9190612a8e565b6001600160a01b03169061182a565b6112ae565b6112ae7f00000000000000000000000000000000000000000000000000000000000000007f00000000000000000000000000000000000000000000000000000000000000006001600160a01b03166312fde4b76040518163ffffffff1660e01b81526004016020604051808303816000875af1158015611284573d6000803e3d6000fd5b505050506040513d601f19601f820116820180604052508101906112a89190612a8e565b856117d3565b6112e27f0000000000000000000000000000000000000000000000000000000000000000836112dd8688612738565b6117d3565b61130e816112f36020880188612705565b6113036080890160608a01612705565b886101000135611943565b5050505050565b60006113417f000000000000000000000000000000000000000000000000000000000000000030610b50565b905061135d6113566040880160208901612705565b84876117d3565b61137d823061137260808a0160608b01612705565b896101000135611943565b6000816113aa7f000000000000000000000000000000000000000000000000000000000000000030610b50565b6113b49190612738565b905073eeeeeeeeeeeeeeeeeeeeeeeeeeeeeeeeeeeeeeee6113db6060890160408a01612705565b6001600160a01b031603611493576001600160a01b037f000000000000000000000000000000000000000000000000000000000000000016632e1a7d4d6114228784612738565b6040518263ffffffff1660e01b815260040161144091815260200190565b600060405180830381600087803b15801561145a57600080fd5b505af115801561146e573d6000803e3d6000fd5b5050505061148e85826114819190612738565b6111ec60208a018a612705565b6114bd565b6114bd6114a66060890160408a01612705565b6114b360208a018a612705565b6112dd8885612738565b61156b7f00000000000000000000000000000000000000000000000000000000000000007f00000000000000000000000000000000000000000000000000000000000000006001600160a01b03166312fde4b76040518163ffffffff1660e01b81526004016020604051808303816000875af1158015611541573d6000803e3d6000fd5b505050506040513d601f19601f820116820180604052508101906115659190612a8e565b876117d3565b50505050505050565b600061159661158960808a0160608b01612705565b87848b6101000135611bf9565b6000815181106115a8576115a8612aab565b602002602001015190506115d38860200160208101906115c89190612705565b866112dd848b612738565b6115ff836115e460208b018b612705565b6115f460808c0160608d01612705565b8b6101000135611943565b61161961161260408a0160208b01612705565b85836117d3565b6116a1827f00000000000000000000000000000000000000000000000000000000000000006001600160a01b03166312fde4b76040518163ffffffff1660e01b81526004016020604051808303816000875af115801561167d573d6000803e3d6000fd5b505050506040513d601f19601f820116820180604052508101906115e49190612a8e565b5050505050505050565b6000846001600160a01b03168a6001600160a01b031614806116e957506001600160a01b038a1673eeeeeeeeeeeeeeeeeeeeeeeeeeeeeeeeeeeeeeee145b1561171b578388116116fd575060006117c6565b8661171261170b868b612738565b8589611d91565b101590506117c6565b846001600160a01b0316896001600160a01b0316148061175757506001600160a01b03891673eeeeeeeeeeeeeeeeeeeeeeeeeeeeeeeeeeeeeeee145b15611791576000611769898589611d91565b905084811161177c5760009150506117c6565b876117878683612738565b10159150506117c6565b600061179e858489611e3a565b90508881106117b15760009150506117c6565b876117876117bf838c612738565b868a611d91565b9998505050505050505050565b604080516001600160a01b038416602482015260448082018490528251808303909101815260649091019091526020810180516001600160e01b031663a9059cbb60e01b179052611825908490611ec5565b505050565b8047101561187a5760405162461bcd60e51b815260206004820152601d60248201527f416464726573733a20696e73756666696369656e742062616c616e636500000060448201526064016102be565b6000826001600160a01b03168260405160006040518083038185875af1925050503d80600081146118c7576040519150601f19603f3d011682016040523d82523d6000602084013e6118cc565b606091505b50509050806118255760405162461bcd60e51b815260206004820152603a60248201527f416464726573733a20756e61626c6520746f2073656e642076616c75652c207260448201527f6563697069656e74206d6179206861766520726576657274656400000000000060648201526084016102be565b60005b600185516119549190612738565b81101561130e5760008086838151811061197057611970612aab565b6020026020010151878460016119869190612ac1565b8151811061199657611996612aab565b60200260200101519150915060006119ae8383611f97565b50905060006119bf8785858961208e565b90506000806000836001600160a01b0316630902f1ac6040518163ffffffff1660e01b8152600401606060405180830381865afa158015611a04573d6000803e3d6000fd5b505050506040513d601f19601f82011682018060405250810190611a289190612af0565b506001600160701b031691506001600160701b03169150600080866001600160a01b0316896001600160a01b031614611a62578284611a65565b83835b6040516370a0823160e01b81526001600160a01b038981166004830152929450909250611aed918491908c16906370a0823190602401602060405180830381865afa158015611ab8573d6000803e3d6000fd5b505050506040513d601f19601f82011682018060405250810190611adc91906128e1565b611ae69190612738565b838361214c565b945050505050600080846001600160a01b0316876001600160a01b031614611b1757826000611b1b565b6000835b91509150600060028d51611b2f9190612738565b8910611b3b578b611b6a565b611b6a8b888f611b4c8d6002612ac1565b81518110611b5c57611b5c612aab565b60200260200101518d61208e565b6040805160008152602081019182905263022c0d9f60e01b9091529091506001600160a01b0386169063022c0d9f90611bac9086908690869060248101612b9c565b600060405180830381600087803b158015611bc657600080fd5b505af1158015611bda573d6000803e3d6000fd5b5050505050505050505050508080611bf190612bc9565b915050611946565b6060600283511015611c4d5760405162461bcd60e51b815260206004820152601e60248201527f556e697377617056324c6962726172793a20494e56414c49445f50415448000060448201526064016102be565b825167ffffffffffffffff811115611c6757611c6761291c565b604051908082528060200260200182016040528015611c90578160200160208202803683370190505b509050838160018351611ca39190612738565b81518110611cb357611cb3612aab565b602002602001018181525050600060018451611ccf9190612738565b90505b8015611d8857600080611d238887611ceb600187612738565b81518110611cfb57611cfb612aab565b6020026020010151888681518110611d1557611d15612aab565b60200260200101518861222a565b91509150611d4b848481518110611d3c57611d3c612aab565b602002602001015183836122f6565b84611d57600186612738565b81518110611d6757611d67612aab565b60200260200101818152505050508080611d8090612be2565b915050611cd2565b50949350505050565b600080826001600160a01b031663d06ca61f86866040518363ffffffff1660e01b8152600401611dc2929190612bf9565b600060405180830381865afa158015611ddf573d6000803e3d6000fd5b505050506040513d6000823e601f3d908101601f19168201604052611e079190810190612c50565b90508060018251611e189190612738565b81518110611e2857611e28612aab565b60200260200101519150509392505050565b600080826001600160a01b0316631f00ca7486866040518363ffffffff1660e01b8152600401611e6b929190612bf9565b600060405180830381865afa158015611e88573d6000803e3d6000fd5b505050506040513d6000823e601f3d908101601f19168201604052611eb09190810190612c50565b905080600081518110611e2857611e28612aab565b6000611f1a826040518060400160405280602081526020017f5361666545524332303a206c6f772d6c6576656c2063616c6c206661696c6564815250856001600160a01b03166123cf9092919063ffffffff16565b8051909150156118255780806020019051810190611f3891906128fa565b6118255760405162461bcd60e51b815260206004820152602a60248201527f5361666545524332303a204552433230206f7065726174696f6e20646964206e6044820152691bdd081cdd58d8d9595960b21b60648201526084016102be565b600080826001600160a01b0316846001600160a01b0316036120095760405162461bcd60e51b815260206004820152602560248201527f556e697377617056324c6962726172793a204944454e544943414c5f41444452604482015264455353455360d81b60648201526084016102be565b826001600160a01b0316846001600160a01b03161061202957828461202c565b83835b90925090506001600160a01b0382166120875760405162461bcd60e51b815260206004820152601e60248201527f556e697377617056324c6962726172793a205a45524f5f41444452455353000060448201526064016102be565b9250929050565b600080600061209d8686611f97565b6040516bffffffffffffffffffffffff19606084811b8216602084015283901b166034820152919350915087906048016040516020818303038152906040528051906020012085604051602001612129939291906001600160f81b0319815260609390931b6bffffffffffffffffffffffff191660018401526015830191909152603582015260550190565b60408051601f198184030181529190528051602090910120979650505050505050565b60008084116121b15760405162461bcd60e51b815260206004820152602b60248201527f556e697377617056324c6962726172793a20494e53554646494349454e545f4960448201526a1394155517d05353d5539560aa1b60648201526084016102be565b6000831180156121c15750600082115b6121dd5760405162461bcd60e51b81526004016102be90612cd6565b60006121eb856103e56123e6565b905060006121f982856123e6565b905060006122138361220d886103e86123e6565b906123f2565b905061221f8183612d1e565b979650505050505050565b60008060006122398686611f97565b50905060008061224b8989898961208e565b6001600160a01b0316630902f1ac6040518163ffffffff1660e01b8152600401606060405180830381865afa158015612288573d6000803e3d6000fd5b505050506040513d601f19601f820116820180604052508101906122ac9190612af0565b506001600160701b031691506001600160701b03169150826001600160a01b0316886001600160a01b0316146122e35780826122e6565b81815b909a909950975050505050505050565b600080841161235c5760405162461bcd60e51b815260206004820152602c60248201527f556e697377617056324c6962726172793a20494e53554646494349454e545f4f60448201526b155514155517d05353d5539560a21b60648201526084016102be565b60008311801561236c5750600082115b6123885760405162461bcd60e51b81526004016102be90612cd6565b60006123a06103e861239a86886123e6565b906123e6565b905060006123b46103e561239a86896123fe565b90506123c5600161220d8385612d1e565b9695505050505050565b60606123de848460008561240a565b949350505050565b6000610bf18284612d40565b6000610bf18284612ac1565b6000610bf18284612738565b60608247101561246b5760405162461bcd60e51b815260206004820152602660248201527f416464726573733a20696e73756666696369656e742062616c616e636520666f6044820152651c8818d85b1b60d21b60648201526084016102be565b843b6124b95760405162461bcd60e51b815260206004820152601d60248201527f416464726573733a2063616c6c20746f206e6f6e2d636f6e747261637400000060448201526064016102be565b600080866001600160a01b031685876040516124d59190612d5f565b60006040518083038185875af1925050503d8060008114612512576040519150601f19603f3d011682016040523d82523d6000602084013e612517565b606091505b509150915061221f82828660608315612531575081610bf1565b8251156125415782518084602001fd5b8160405162461bcd60e51b81526004016102be9190612d7b565b6000610140828403121561256e57600080fd5b50919050565b60008083601f84011261258657600080fd5b50813567ffffffffffffffff81111561259e57600080fd5b60208301915083602082850101111561208757600080fd5b6000806000604084860312156125cb57600080fd5b833567ffffffffffffffff808211156125e357600080fd5b6125ef8783880161255b565b9450602086013591508082111561260557600080fd5b5061261286828701612574565b9497909650939450505050565b60006020828403121561263157600080fd5b5035919050565b60006020828403121561264a57600080fd5b813567ffffffffffffffff81111561266157600080fd5b6123de8482850161255b565b6000806000806060858703121561268357600080fd5b84359350602085013567ffffffffffffffff808211156126a257600080fd5b6126ae8883890161255b565b945060408701359150808211156126c457600080fd5b506126d187828801612574565b95989497509550505050565b6001600160a01b03811681146126f257600080fd5b50565b8035612700816126dd565b919050565b60006020828403121561271757600080fd5b8135610bf1816126dd565b634e487b7160e01b600052601160045260246000fd5b60008282101561274a5761274a612722565b500390565b81835281816020850137506000828201602090810191909152601f909101601f19169091010190565b83815260406020820152600061066d60408301848661274f565b6000808335601e198436030181126127a957600080fd5b830160208101925035905067ffffffffffffffff8111156127c957600080fd5b80360383131561208757600080fd5b60006101406127f7846127ea856126f5565b6001600160a01b03169052565b612803602084016126f5565b6001600160a01b0316602085015261281d604084016126f5565b6001600160a01b03166040850152612837606084016126f5565b6001600160a01b03166060850152612851608084016126f5565b6001600160a01b03811660808601525060a083013560a085015260c083013560c085015260e083013560e085015261010080840135818601525061012061289a81850185612792565b838388015261221f848801828461274f565b602081526000610bf160208301846127d8565b6040815260006128d260408301856127d8565b90508260208301529392505050565b6000602082840312156128f357600080fd5b5051919050565b60006020828403121561290c57600080fd5b81518015158114610bf157600080fd5b634e487b7160e01b600052604160045260246000fd5b604051601f8201601f1916810167ffffffffffffffff8111828210171561295b5761295b61291c565b604052919050565b600067ffffffffffffffff82111561297d5761297d61291c565b5060051b60200190565b600082601f83011261299857600080fd5b813560206129ad6129a883612963565b612932565b82815260059290921b840181019181810190868411156129cc57600080fd5b8286015b848110156129f05780356129e3816126dd565b83529183019183016129d0565b509695505050505050565b600080600080600060a08688031215612a1357600080fd5b853594506020860135612a25816126dd565b93506040860135612a35816126dd565b9250606086013567ffffffffffffffff80821115612a5257600080fd5b612a5e89838a01612987565b93506080880135915080821115612a7457600080fd5b50612a8188828901612987565b9150509295509295909350565b600060208284031215612aa057600080fd5b8151610bf1816126dd565b634e487b7160e01b600052603260045260246000fd5b60008219821115612ad457612ad4612722565b500190565b80516001600160701b038116811461270057600080fd5b600080600060608486031215612b0557600080fd5b612b0e84612ad9565b9250612b1c60208501612ad9565b9150604084015163ffffffff81168114612b3557600080fd5b809150509250925092565b60005b83811015612b5b578181015183820152602001612b43565b83811115612b6a576000848401525b50505050565b60008151808452612b88816020860160208601612b40565b601f01601f19169290920160200192915050565b84815283602082015260018060a01b03831660408201526080606082015260006123c56080830184612b70565b600060018201612bdb57612bdb612722565b5060010190565b600081612bf157612bf1612722565b506000190190565b6000604082018483526020604081850152818551808452606086019150828701935060005b81811015612c435784516001600160a01b031683529383019391830191600101612c1e565b5090979650505050505050565b60006020808385031215612c6357600080fd5b825167ffffffffffffffff811115612c7a57600080fd5b8301601f81018513612c8b57600080fd5b8051612c996129a882612963565b81815260059190911b82018301908381019087831115612cb857600080fd5b928401925b8284101561221f57835182529284019290840190612cbd565b60208082526028908201527f556e697377617056324c6962726172793a20494e53554646494349454e545f4c604082015267495155494449545960c01b606082015260800190565b600082612d3b57634e487b7160e01b600052601260045260246000fd5b500490565b6000816000190483118215151615612d5a57612d5a612722565b500290565b60008251612d71818460208701612b40565b9190910192915050565b602081526000610bf16020830184612b7056fea26469706673582212200fb676a721d86398299da111baa3b92d2f0e5ff66add6bd5a0e8d4e71c5b424564736f6c634300080d0033",
  "linkReferences": {},
  "deployedLinkReferences": {}
}